S00C00006770696F2E7372656369
S11300000C942A000C9447000C9447000C9447006D
S11300100C9447000C9447000C9447000C94470040
S11300200C9447000C9447000C9447000C94A301D3
S11300300C9447000C9447000C9447000C94470020
S11300400C9447000C9447000C9447000C94470010
S11300500C94470011241FBECFE5D8E0DEBFCDBF0E
S113006010E0A0E6B0E0ECE8F5E002C005900D92E7
S1130070A436B107D9F720E0A4E6B0E001C01D9290
S1130080AD36B207E1F70E94A1010C94C4020C94AE
S11300900000EF920F93CF93C82FEE24E39400E077
S11300A020E044E060E080E00E941C02CC2319F0D0
S11300B0C130F1F51FC04FEF64E083E00E94F70008
S11300C04FEF68E083E00E94F7004FEF60E183E0C8
S11300D00E94F70040E064E083E00E94270140E0D2
S11300E068E083E00E94270140E060E183E00E9431
S11300F027011EC04FEF60E483E00E94F7004FEF3A
S113010060E883E00E94F7004FEF60E283E00E9422
S1130110F70040E060E483E00E94270140E060E8EB
S113012083E00E94270140E060E283E00E9427010F
S1130130CF910F91EF900895882321F0813009F039
S11301404FC028C0613029F0D0F0623009F048C0B7
S11301500BC04FEF64E083E00E94270140E068E0B9
S113016083E00E942701089540E064E083E00E9458
S113017027014FEF68E083E00E942701089540E0E3
S113018064E083E00E94270140E068E083E00E948D
S113019027010895613021F0C8F0623009F50BC0E1
S11301A04FEF60E483E00E94270140E060E883E0D1
S11301B00E942701089540E060E483E00E94270143
S11301C04FEF60E883E00E942701089540E060E477
S11301D083E00E94270140E060E883E00E94270159
S11301E0089520E240E168EC0E94330208958130D2
S11301F081F028F08230B9F0833041F51EC08AB313
S1130200962F909589238ABB8AB36423682B6ABB93
S1130210089587B3962F9095892387BB87B364236A
S1130220682B67BB089584B3962F9095892384BB6C
S113023084B36423682B64BB089581B3962F90958F
S1130240892381BB81B36423682B61BB089581300A
S113025081F028F08230B9F0833041F51EC08BB3B1
S1130260962F909589238BBB8BB36423682B6BBB30
S1130270089588B3962F9095892388BB88B3642307
S1130280682B68BB089585B3962F9095892385BB09
S113029085B36423682B65BB089582B3962F90952C
S11302A0892382BB82B36423682B62BB089580E0F8
S11302B00E94490081E00E944900C12CE12C00E029
S11302C020E043E060E080E00E9446028FB780684F
S11302D08FBF61E080E00E949C0061E081E00E94A9
S11302E09C00C0E082E390E00E946B028C2F0E948D
S11302F0F100CF5FC436B1F782E390E00E946B0255
S11303008C2F0E94F100C150B9F762E080E00E9496
S11303109C0061E081E00E949C00C5E5D0E08AE099
S113032090E00E946B0289E10E94F1002197B9F7E5
S113033060E080E00E949C0060E081E00E949C00FC
S1130340FFCF0E9457011F920F920FB60F921124F4
S11303502F933F934F935F936F937F938F939F93C9
S1130360AF93BF93EF93FF938091650090916600E4
S1130370A0916700B09168000097A105B10569F4E8
S113038040E06091610083E00E94270140E06091B9
S1130390600083E00E9427013EC084369105A105D8
S11303A0B10569F44FEF6091610083E00E94270179
S11303B04FEF6091600083E00E9427012CC0809180
S11303C06400811115C04FEF6091610083E00E94C9
S11303D027014FEF6091600083E00E942701809124
S11303E06500880F809582BF81E08093640013C00C
S11303F040E06091610083E00E94270140E0609149
S1130400600083E00E94270180916500880F895C69
S113041082BF10926400FF91EF91BF91AF919F91C1
S11304208F917F916F915F914F913F912F910F9099
S11304300FBE0F901F901895EF920F9393B7982BC0
S113044093BF93B7692B63BF93B7942B93BF99B7AB
S1130450E92AE9BE22BF0CBF409362008093690081
S11304600F91EF90089590E0A0E0B0E080936500D4
S113047090936600A0936700B09368004093610076
S11304802093600008959DBD8CBD0895CF920F9375
S1130490EEB5FFB5E82BFFBDEEBDEEB5FFB5DF0150
S11304A0A62BBD017FBD6EBD6EB57FB5FB01E42BF0
S11304B0AF015FBD4EBD99B7C92AC9BE24BD03BDF6
S11304C080936C000F91CF90089585B5846085BDAD
S11304D0089515BC08958F929F92AF92BF92CF92C8
S11304E0DF92EF92FF924C0120916A0030916B00F1
S11304F0232B19F50E946502A12CB12C81149104BF
S1130500A104B104B9F0C12CD12C760186E090E0AD
S11305100E94430208B606FEFDCF88B7806488BFF8
S11305208FEFC81AD80AE80AF80AC814D904EA04EA
S1130530FB0460F30E9469021EC089EF83BD0E9420
S11305406502A12CB12C81149104A104B10489F099
S113055080E090E0DC0108B607FEFDCF28B72068F4
S113056028BF0196A11DB11D88159905AA05BB05D3
S113057090F30E946902FF90EF90DF90CF90BF90BC
S10F0580AF909F908F900895F894FFCFE7
S107058C2010030034
S9030000FC
